:100000000C942A000C9447000C9447000C94470071
:100010000C9447000C9447000C9447000C94470044
:100020000C9447000C9447000C9447000C94470034
:100030000C9447000C9447000C9447000C94470024
:100040000C9447000C9447000C9447000C94470014
:100050000C94470011241FBECFE5D4E0DEBFCDBF16
:1000600010E0A0E6B0E0E4EFF0E002C005900D92F1
:10007000A036B107D9F710E0A0E6B0E001C01D92AC
:10008000A036B107E1F70E9458000C9478000C9458
:10009000000083B7896683BFBB9A08958CBF08951B
:1000A00086B1876086B93E9A3D9A379A369A089506
:1000B0008FEF81BB86B1876086B93E9A3D9A379AA9
:1000C000369A83B7896683BFBB9A38E022E091E015
:1000D000369A86B185B1863510F492BB06C085B1DB
:1000E0008C3A10F422BB01C032BB85B18CBFF0CF7B
:0400F000F894FFCFB2
:00000001FF
